:100000000C9479000C94A1000C94A1000C94A10014
:100010000C94A1000C94A1000C94A1000C94A100DC
:100020000C94A1000C94A1000C94A1000C94A100CC
:100030000C94A1000C94A1000C94A1000C94A100BC
:100040000C9434060C94A1000C9407060C94E10562
:100050000C94A1000C94A1000C94A1000C94A1009C
:100060000C94C4040C94A100084AD73B3BCE016E0B
:1000700084BCBFFDC12F3D6C74319ABD56833DDAFF
:100080003D00C77F11BED9E4BB4C3E916BAAAABE0E
:10009000000000803F0000000000240027002A002C
:1000A00000000000250028002B00000000002300B5
:1000B00026002900040404040404040402020202C9
:1000C000020203030303030301020408102040801B
:1000D000010204081020010204081020000000089A
:1000E00000020100000304070000000000000000FF
:1000F0007C0611241FBECFEFD8E0DEBFCDBF11E0DC
:10010000A0E0B1E0EEE7FAE102C005900D92A43262
:10011000B107D9F722E0A4E2B1E001C01D92A839ED
:10012000B207E1F710E0C9E7D0E004C02197FE0173
:100130000E94370DC837D107C9F70E94B5060C9445
:10014000400A0C940000682FE091EF01F091F0015B
:100150000190F081E02D8FEE91E00994982F6132AB
:1001600008F049C08091CE018111FCCF22E020939C
:10017000CE014093CD012FEF2093CC011092CB0103
:100180006093CA014FEC51E0AAEAB1E0FA012E2FC8
:10019000241B261758F11092A9012091A901990F4B
:1001A000922B9093A9019091A801913011F5109292
:1001B000A8019091A9019093BB009091BC0093FD80
:1001C000F8CF95EC9093BC009091CE019230E1F382
:1001D0009091CC019F3FA1F08091CC01803269F0D9
:1001E0008091CC01803359F084E0089521912D93C2
:1001F000CECF95EEE7CF81E0089582E0089583E0C9
:100200000895482F6091A7018091A6010E94AE0039
:100210001092A5011092A7011092A401089586E101
:1002200091E09093A3018093A201089508958EE137
:1002300091E09093A1018093A00108950895982FD3
:10024000862F2091CE012111FCCF21E02093CE01F9
:100250002093CD013FEF3093CC011092CB01380FAA
:100260003093CA012093A9012091A901990F922BE3
:100270009093A9019091A801913009F51092A801DD
:100280009091A9019093BB009091BC0093FDF8CF91
:1002900095EC9093BC009091CE019130E1F3909158
:1002A000CB01981710F48091CB012AEA31E0A0E845
:1002B000B1E0F9019E2F921B981718F0089595EE62
:1002C000E8CF91919D93F6CFCF92DF92EF92FF927C
:1002D0000F931F93CF93DF937C016A0110E000E03E
:1002E0000C151D0581F0EB01D701ED91FC910190FA
:1002F000F081E02D6991C7010995892B21F00F5FED
:100300001F4FBE01EDCFC801DF91CF911F910F911B
:10031000FF90EF90DF90CF90089585ED8093BC0023
:100320008091BC0084FDFCCF1092CE0108952091F5
:100330005D01260F3327331F21323105ECF4209164
:10034000CE01FC0190E080E0243069F082E0089565
:10035000A0915D012191AC01435C5E4FA40FB52FCC
:10036000B11D2C930196861798F380915D01680F5B
:1003700060935D0180E0089581E008950895E09123
:100380003C0180913B01E81730F4F0E0E058FE4F6B
:10039000808190E008958FEF9FEF089590913C0148
:1003A00080913B012FEF3FEF981748F4E92FF0E0E1
:1003B000E058FE4F208130E09F5F90933C01C901DF
:1003C000089580913B0190913C01891B990B089500
:1003D000CF92DF92EF92FF920F931F93CF93DF9311
:1003E0007C01CB018A012091A401222389F0EB0139
:1003F0006B01C40ED51ECC15DD0569F06991D701DE
:10040000ED91FC910190F081E02DC7010995F3CFAA
:10041000642F0E949701C801DF91CF911F910F9126
:10042000FF90EF90DF90CF900895CF93DF930F92DE
:10043000CDB7DEB7FC0169838091A4018823F1F078
:100440008091A701803250F081E090E09383828315
:1004500090E080E00F90DF91CF9108958091A50109
:10046000E82FF0E0E153FE4F998190838F5F8093F6
:10047000A5018093A70181E090E0ECCF61E0CE017F
:1004800001960E949701F7CF90E080E00895FC016B
:10049000538D448D252F30E0842F90E0821B930BE9
:1004A000541710F0CF96089501970895FC01918D8F
:1004B000828D981761F0A28DAE0FBF2FB11D5D9692
:1004C0008C91928D9F5F9F73928F90E008958FEF34
:1004D0009FEF0895FC01918D828D981731F0828DE8
:1004E000E80FF11D858D90E008958FEF9FEF08953F
:1004F000FC01818D228D90E0805C9F4F821B9109D1
:100500008F7399270895FC01A48DA80FB92FB11DF1
:10051000A35ABF4F2C91848D90E001968F73992739
:10052000848FA689B7892C93A089B1898C91837017
:1005300080648C93938D848D981306C00288F38910
:10054000E02D80818F7D80830895EF92FF920F933D
:100550001F93CF93DF93EC01F62E81E0888F9B8D64
:100560008C8D98131AC0E889F989808185FF15C0A0
:100570009FB7F894EE89FF896083E889F9898081C3
:100580008370806480839FBF81E090E0DF91CF9192
:100590001F910F91FF90EF9008950B8D10E00F5F6A
:1005A0001F4F0F731127E02E8C8D8E110CC00FB6CC
:1005B00007FCFACFE889F989808185FFF5CFCE0164
:1005C0000E948302F1CFEB8DEC0FFD2FF11DE35A5A
:1005D000FF4FF0829FB7F8940B8FEA89FB898081E7
:1005E0008062D0CFCF93DF93EC01888D8823B9F060
:1005F000AA89BB89E889F9898C9185FD03C080812E
:1006000086FD0DC00FB607FCF7CF8C9185FFF2CFAA
:10061000808185FFEDCFCE010E948302E9CFDF917B
:10062000CF9108958BEF91E00E9478029C0181E0C8
:10063000232B09F480E0089580E090E0892B29F0D5
:100640000E94120381110C9400000895843099F0E7
:1006500038F48230C1F0833041F0813081F0089568
:100660008730A1F08830C1F00895809180008F77A5
:10067000809380000895809180008F7DF9CF84B5AC
:100680008F7784BD089584B58F7DFBCF8091B000B6
:100690008F778093B00008958091B0008F7DF9CF5F
:1006A000CF93DF93282F30E0F901E452FF4F84917C
:1006B000F901E853FF4FD491F901EC54FF4FC49175
:1006C000CC23A1F081110E942603EC2FF0E0EE0F65
:1006D000FF1FE655FF4FA591B491EC91ED2381E00A
:1006E00090E009F480E0DF91CF91089580E090E000
:1006F000FACF1F93CF93DF93162F282F30E0F90105
:10070000E452FF4F8491F901E853FF4FD491F9016E
:10071000EC54FF4FC491CC23A1F081110E94260319
:10072000EC2FF0E0EE0FFF1FE056FF4FA591B491C4
:100730008FB7F894EC91111108C0D095DE23DC93AB
:100740008FBFDF91CF911F910895DE2BF8CF1092CC
:10075000CE0181E08093CD011092A80161E082E199
:100760000E94790361E083E10E947903E9EBF0E004
:1007700080818E7F808380818D7F808388E48093D9
:10078000B80085E48093BC000895CF93DF9390E098
:10079000FC01E853FF4F24918C549F4FFC0184913E
:1007A0008823D1F090E0880F991FFC01EA56FF4F93
:1007B000A591B491FC01E056FF4FC591D4916230F0
:1007C00071F49FB7F8943C91822F809583238C938A
:1007D000E8812E2B28839FBFDF91CF9108958FB79B
:1007E000F894EC912E2B2C938FBFF6CF789484B590
:1007F000826084BD84B5816084BD85B5826085BD1D
:1008000085B5816085BDEEE6F0E080818160808302
:10081000E1E8F0E0108280818260808380818160E5
:100820008083E0E8F0E0808181608083E1EBF0E0AC
:10083000808184608083E0EBF0E080818160808350
:10084000EAE7F0E080818460808380818260808339
:100850008081816080838081806880831092C10064
:100860000895CF93DF9300D000D0CDB7DEB73FB768
:10087000F8948091290190912A01A0912B01B091C7
:100880002C0126B5A89B05C02F3F19F00196A11D8C
:10089000B11D3FBFBA2FA92F982F8827820F911D16
:1008A000A11DB11D9C01AD0162E0220F331F441F49
:1008B000551F6A95D1F7CA01B9010F900F900F909B
:1008C0000F90DF91CF9108958F929F92AF92BF9238
:1008D000CF92DF92EF92FF92CF93DF9300D000D0C0
:1008E000CDB7DEB74B015C010E9431046B017C0186
:1008F0000E943104DC01CB018C199D09AE09BF09AE
:10090000883E9340A105B10598F321E0821A910831
:10091000A108B10888EEC80E83E0D81EE11CF11CC6
:1009200081149104A104B10419F70F900F900F9056
:100930000F90DF91CF91FF90EF90DF90CF90BF901D
:10094000AF909F908F900895CF93DF9300D000D009
:10095000CDB7DEB78FB7F8942091250130912601ED
:10096000409127015091280129833A834B835C836E
:100970008FBF69817A818B819C810F900F900F903E
:100980000F90DF91CF9108951F920F920FB60F92A3
:1009900011242F933F934F935F936F937F938F9384
:1009A0009F93AF93BF93EF93FF939091B900892FDB
:1009B000887F803509F4C0C008F042C0803309F454
:1009C000B6C098F5883101F1D0F4883009F4A7C099
:1009D000803109F4A4C0882309F4F0C0FF91EF919D
:1009E000BF91AF919F918F917F916F915F914F9147
:1009F0003F912F910F900FBE0F901F90189580324E
:100A000009F495C0883251F79091CB018091CA01C9
:100A1000981778F5E091CB0181E08E0F8093CB01A0
:100A2000F0E0E655FE4F80817CC0803409F490C030
:100A3000883409F47EC0883389F68093CC016DC078
:100A4000803A09F49FC0B8F5803809F489C050F5A0
:100A5000803611F1D8F4883509F6E091CB0181E0B8
:100A60008E0F8093CB018091BB00F0E0E655FE4FE6
:100A700080838091CD0181115CC081E08093A801C9
:100A800084EA8093BC001092CE01A8CF803721F079
:100A9000987E983609F0A2CF83E08093CE01109221
:100AA0007F0141C0803909F45BC0987E983809F015
:100AB00095CF85E839C0883BD9F058F5883A19F0C8
:100AC000803B09F08BCF84E08093CE0110925E01D1
:100AD00010925D01E091A001F091A1010995809132
:100AE0005D01811105C081E080935D0110923D019F
:100AF000E0915E0181E08E0F80935E01F0E0E35CA7
:100B0000FE4F80818093BB0090915E0180915D01DA
:100B100023C0907F903C09F061CF85ECB2CF8091EB
:100B2000A9018093BB0085EC8093BC0057CF8093D4
:100B3000CC010E948D0152CFE091CB0181E08E0F5C
:100B40008093CB018091BB00F0E0E655FE4F80839F
:100B50009091CB018091CA01981708F0AACFE3CFFA
:100B600080917F01803208F0A4CFE0917F0181E085
:100B70008E0F80937F018091BB00F0E0E15AFE4F21
:100B80008083D1CF85EC8093BC001092CE01809100
:100B90007F01803230F4E0917F01F0E0E15AFE4FB6
:100BA000108260917F0170E0E091A201F091A301B9
:100BB0008FE591E0099510927F0110CF1092CC0142
:100BC000B8CF1F920F920FB60F9211242F933F931D
:100BD0004F935F936F937F938F939F93AF93BF9345
:100BE000EF93FF938BEF91E00E948302FF91EF91CF
:100BF000BF91AF919F918F917F916F915F914F9135
:100C00003F912F910F900FBE0F901F9018952F932B
:100C10002FB72F938F939F93EF93FF93E0910B0246
:100C2000F0910C028081E0911102F091120282FD9C
:100C300019C09081809114028F5F8F7320911502EB
:100C4000821741F0E0911402F0E0E550FE4F958FDD
:100C500080931402FF91EF919F918F912F912FBF5D
:100C60002F9118958081F6CF1F921FB61F921124E5
:100C70002F933F938F939F93AF93BF9380912501C1
:100C800090912601A0912701B09128013091240173
:100C900023E0230F2D3750F50196A11DB11D2093A0
:100CA00024018093250190932601A0932701B093FE
:100CB00028018091290190912A01A0912B01B091E6
:100CC0002C010196A11DB11D8093290190932A0149
:100CD000A0932B01B0932C01BF91AF919F918F9165
:100CE0003F912F911F901FBE1F90189526E8230F4C
:100CF0000296A11DB11DD3CFEFEEF1E01382128257
:100D000088EE93E0A0E0B0E084839583A683B78368
:100D100024E031E031832083EBEFF1E01382128293
:100D200084839583A683B78386E191E09183808352
:100D300085EC90E09587848784EC90E097878687A0
:100D400080EC90E0918B808B81EC90E0938B828B98
:100D500082EC90E0958B848B86EC90E0978B868B71
:100D6000118E128E138E148E0895CDB7DEB72B9789
:100D70000FB6F894DEBF0FBECDBF0E94F60362E04F
:100D800082E00E94C50362E084E00E94C50362E045
:100D900083E00E94C50361E080E10E94C50361E039
:100DA00081E10E94C50361E080E10E94790360E077
:100DB00081E10E94790310923C0110923B01109254
:100DC000A5011092A7010E94A7030E9417010E948B
:100DD0000F0121E02093A40138E63093A6018BE6B1
:100DE00090E00E94A30090E080E00E94A30081E0D8
:100DF0000E94010141E04093A40158E65093A601EE
:100E00001092A5011092A7018CE190E00E94A3002E
:100E100090E080E00E94A30081E00E94010181E057
:100E20008093A40198E69093A6011092A5011092D8
:100E3000A7018BE190E00E94A30090E080E00E9477
:100E4000A30081E00E94010164EF71E080E090E086
:100E50000E946404E0910B02F0910C0282E0808316
:100E6000E0910702F09108021082E0910902F091EE
:100E70000A028FEC808310921302E0910F02F0912E
:100E8000100286E08083E0910D02F0910E028081D5
:100E900080618083E0910D02F0910E028081886074
:100EA0008083E0910D02F0910E0280818068808342
:100EB000E0910D02F0910E0280818F7D808368EEBB
:100EC00073E080E090E00E9464042224239428E6EA
:100ED000622E30E0832E30E0932E64E670E080E0F6
:100EE00090E00E94640482E00E945003892B29F460
:100EF00080913A01816080933A0183E00E9450031F
:100F0000892B29F480913A01826080933A0184E030
:100F10000E945003892B29F480913A0184608093C8
:100F20003A01A0913A01A983809139018A1759F0B9
:100F30008BEF91E00E944702892B29F069818BEFAA
:100F400091E00E94A5022092A4016092A601109255
:100F5000A5011092A7018BE390E00E94A30080E01E
:100F60000E94010166E088E60E941F0110923C0188
:100F700080933B018FEE91E00E94CE0189838FEE3A
:100F800091E00E94CE01198100E0802B912B9C0101
:100F9000990F440B550B29833A834B835C83CA0119
:100FA000B9010E94870B362E472E582E792E8FEED0
:100FB00091E00E94CE018D838FEE91E00E94CE01E0
:100FC0008A879B878FEE91E00E94CE0189838FEE06
:100FD00091E00E94CE01F980E12C8E299F299C018D
:100FE000990F440B550B29833A834B835C83CA01C9
:100FF000B9010E94870B9B01AC0169837A838B83C3
:101000009C8369817A818B819C810E946B0C6E83A9
:101010007F8388879987232D342D452D572D39823D
:101020004A825B827C8269817A818B819C810E9469
:101030006B0C9B01AC018E8189839F819A83A8856B
:10104000AB83B985BC8369817A818B819C810E9445
:10105000440A69837A838B839C8369817A818B813B
:101060009C810E94DE0C2B01782E392EDD80C12C54
:101070002A853B852C293D29C901092E000CAA0B84
:10108000BB0B89839A83AB83BC83BC01CD010E94D7
:10109000870B9201472D532D69837A838B839C8321
:1010A00069817A818B819C810E94E40A69837A83B9
:1010B0008B839C8369817A818B819C810E94B00A99
:1010C0006E837F83888799872092A4016092A6010E
:1010D0001092A5011092A70183E490E00E94A30062
:1010E00080E00E94010162E088E60E941F011092E8
:1010F0003C0180933B018FEE91E00E94CE018D83F5
:101100008FEE91E00E94CE018A879B870E94A40403
:1011100069837A838B839C8380913501909136011A
:10112000A0913701B091380129813A814B815C81CE
:10113000281B390B4A0B5B0B29833A834B835C8357
:10114000CA01B9010E94850B20E030E04AE754E46F
:1011500069837A838B839C8369817A818B819C816B
:101160000E94E40A362E472E582E792E862F942D73
:10117000A52DB72D8093310190933201A0933301B7
:10118000B09334010E94A40460933501709336013A
:101190008093370190933801BD80A12C4A855B85EF
:1011A0004A295B29CA01092E000CAA0BBB0B8983B3
:1011B0009A83AB83BC83BC01CD010E94870B20E0E6
:1011C00030E043E053E469837A838B839C836981B5
:1011D0007A818B819C810E94E40A232D342D452D38
:1011E000572D69837A838B839C8369817A818B8174
:1011F0009C810E946B0C20912D0130912E01409119
:101200002F015091300169837A838B839C8369819C
:101210007A818B819C810E94440A2FE832EC45E759
:101220005FE369837A838B839C8369817A818B8175
:101230009C810E946B0C6A877D83782E592E20E05A
:1012400030E044E353E49E819983AF81AA83B8855B
:10125000BB8389858C8369817A818B819C810E9483
:101260006B0C2BED3FE049E450E469837A838B8378
:101270009C8369817A818B819C810E94E40A21EEA2
:101280003AE744E15FE369837A838B839C836981D6
:101290007A818B819C810E94430A2AE037ED43E2E8
:1012A0005DE369837A838B839C8369817A818B81F7
:1012B0009C810E946B0C9B01AC019A859983AD8146
:1012C000AA837B825C8269817A818B819C810E9466
:1012D000440AF62FE72F462F572FBC0140932D01CC
:1012E00050932E0160932F017093300120E030E085
:1012F00048E252E4F983EA838B839C8369817A8193
:101300008B819C810E94440A562E772E8E839D836A
:1013100020E030E044EB52E469837A838B839C8342
:1013200069817A818B819C810E945E0C181664F120
:1013300020E030E044EB52EC69817A818B819C8122
:101340000E94DF0A87FD95C020E030E0A901698195
:101350007A818B819C810E945E0C1816DCF020E063
:1013600030E044E353E459827A829E819B83AD81CD
:10137000AC8369817A818B819C810E94440A698354
:101380007A838B839C830CC0512C712CB4EBBE836D
:1013900022E42D8359827A823E813B834D814C83A6
:1013A00069817A818B819C810E94560B6F5E262F0A
:1013B00030E050E040E029833A834B835C83CA01EC
:1013C000B9010E94870B2BE734E14EE25EE36983AB
:1013D0007A838B839C8369817A818B819C810E9433
:1013E0006B0C69837A838B839C8369817A818B817F
:1013F0009C810E94560B6F7134E0639FB0011124F1
:1014000070903A01762A70923A018BEF91E00E9437
:101410007802892BF1F08BEF91E00E9456028983CC
:101420009A83682F617085E00E94790369817A81CF
:1014300076956795617086E00E94790349815A81AB
:101440005695479556954795642F617087E00E94A1
:1014500079037092390110923A018114910409F4D0
:101460003CCD0E941203882309F437CD0E9400006E
:1014700034CD512C712C54EB5E8382EC8D836FCF75
:10148000F8940C943D0D5058BB27AA270E945B0A84
:101490000C94240C0E94160C38F00E941D0C20F0B5
:1014A00039F49F3F19F426F40C94EC0B0EF4E095FC
:1014B000E7FB0C94E60BE92F0E94350C58F3BA17A2
:1014C000620773078407950720F079F4A6F50C945A
:1014D000570C0EF4E0950B2EBA2FA02D0B01B9017D
:1014E00090010C01CA01A0011124FF27591B99F09A
:1014F000593F50F4503E68F11A16F040A22F232FA6
:10150000342F4427585FF3CF469537952795A795F5
:10151000F0405395C9F77EF41F16BA0B620B730B9C
:10152000840BBAF09150A1F0FF0FBB1F661F771F0D
:10153000881FC2F70EC0BA0F621F731F841F48F4C2
:10154000879577956795B795F7959E3F08F0B0CF4B
:101550009395880F08F09927EE0F97958795089532
:10156000DF93DD27B92FBF7740E85FE31616170634
:1015700048075B0718F4D92F0E94630C9F938F9341
:101580007F936F930E941E0DE8E6F0E00E94EF0B40
:101590000E94240C2F913F914F915F910E947E0CED
:1015A000DD2351F09058A2EA2AED3FE049EC5FE3D9
:1015B000D0785D270E945B0ADF910C94240C0E9476
:1015C000C20B08F481E008950E94F80A0C94240CE0
:1015D0000E941D0C58F00E94160C40F029F45F3F49
:1015E00029F00C94E60B51110C94580C0C94EC0B54
:1015F0000E94350C68F39923B1F3552391F3951BA1
:10160000550BBB27AA2762177307840738F09F5F23
:101610005F4F220F331F441FAA1FA9F335D00E2E90
:101620003AF0E0E832D091505040E695001CCAF7FD
:101630002BD0FE2F29D0660F771F881FBB1F2617C0
:1016400037074807AB07B0E809F0BB0B802DBF0197
:10165000FF2793585F4F3AF09E3F510578F00C9466
:10166000E60B0C94580C5F3FE4F3983ED4F3869558
:1016700077956795B795F7959F5FC9F7880F911D87
:101680009695879597F90895E1E0660F771F881F73
:10169000BB1F621773078407BA0720F0621B730B26
:1016A000840BBA0BEE1F88F7E09508950E943D0C5D
:1016B00088F09F5798F0B92F9927B751B0F0E1F013
:1016C000660F771F881F991F1AF0BA95C9F714C0C3
:1016D000B13091F00E94570CB1E008950C94570C72
:1016E000672F782F8827B85F39F0B93FCCF38695FC
:1016F00077956795B395D9F73EF490958095709559
:1017000061957F4F8F4F9F4F0895E89409C097FBD5
:101710003EF490958095709561957F4F8F4F9F4FC8
:101720009923A9F0F92F96E9BB279395F69587950C
:1017300077956795B795F111F8CFFAF4BB0F11F4CF
:1017400060FF1BC06F5F7F4F8F4F9F4F16C0882376
:1017500011F096E911C0772321F09EE8872F762FAC
:1017600005C0662371F096E8862F70E060E02AF0ED
:101770009A95660F771F881FDAF7880F96958795D9
:1017800097F90895990F0008550FAA0BE0E8FEEFAE
:1017900016161706E807F907C0F012161306E40735
:1017A000F50798F0621B730B840B950B39F40A262E
:1017B00061F0232B242B252B21F408950A2609F40C
:1017C000A140A6958FEF811D811D089597F99F6710
:1017D00080E870E060E008959FEF80EC0895DF936B
:1017E000CF931F930F93FF92EF92DF927B018C01B7
:1017F000689406C0DA2EEF010E947E0CFE01E89488
:10180000A5912591359145915591A6F3EF010E943F
:101810005B0AFE019701A801DA9469F7DF90EF9067
:10182000FF900F911F91CF91DF91089500240A94AA
:101830001616170618060906089500240A941216AB
:101840001306140605060895092E0394000C11F4DE
:10185000882352F0BB0F40F4BF2B11F460FF04C08B
:101860006F5F7F4F8F4F9F4F089557FD9058440FE4
:10187000551F59F05F3F71F04795880F97FB991FEF
:1018800061F09F3F79F087950895121613061406AC
:10189000551FF2CF4695F1DF08C016161706180639
:1018A000991FF1CF86957105610508940895E89414
:1018B000BB2766277727CB0197F908950E94C20BB3
:1018C00008F48FEF08959B01AC0160E070E080E8C0
:1018D0009FE30C94E40A0E947E0C0C94240C0E945A
:1018E000160C38F00E941D0C20F0952311F00C947A
:1018F000E60B0C94EC0B11240C94580C0E94350C44
:1019000070F3959FC1F3950F50E0551F629FF00152
:10191000729FBB27F00DB11D639FAA27F00DB11D6B
:10192000AA1F649F6627B00DA11D661F829F2227F4
:10193000B00DA11D621F739FB00DA11D621F839F7B
:10194000A00D611D221F749F3327A00D611D231F51
:10195000849F600D211D822F762F6A2F11249F579F
:1019600050409AF0F1F088234AF0EE0FFF1FBB1FA2
:10197000661F771F881F91505040A9F79E3F510561
:1019800080F00C94E60B0C94580C5F3FE4F3983E07
:10199000D4F3869577956795B795F795E7959F5F0B
:1019A000C1F7FE2B880F911D9695879597F908959D
:1019B00019F416F40C94EC0B0C94220D0E943D0CBF
:1019C000B8F39923C9F3B6F39F57550B87FF0E94CD
:1019D000300D0024A0E640EA900180585695979576
:1019E00028F4805C660F771F881F20F026173707C2
:1019F000480730F4621B730B840B202931294A2BD2
:101A0000A69517940794202531254A2758F7660F85
:101A1000771F881F20F026173707480730F4620B1E
:101A2000730B840B200D311D411DA09581F7B90169
:101A3000842F9158880F9695879508959B01AC0146
:101A40000C946B0C9F3F31F0915020F48795779563
:101A50006795B795880F911D9695879597F9089585
:101A600091505040660F771F881FD2F70895EE0FF0
:0E1A7000FF1F0590F491E02D0994F894FFCF2C
:101A7E00000000001502E8014402BE01E101CE01A2
:101A8E00BF0100000000A50264014702F2027802C5
:041A9E0056026A0280
:00000001FF
